{
	"contracts/artifacts/cache/MopedShop.sol": {
		"MopedShop": {
			"abi": [
				{
					"inputs": [],
					"stateMutability": "nonpayable",
					"type": "constructor"
				},
				{
					"anonymous": false,
					"inputs": [
						{
							"indexed": false,
							"internalType": "uint256",
							"name": "_price",
							"type": "uint256"
						},
						{
							"indexed": false,
							"internalType": "address",
							"name": "_shopAddress",
							"type": "address"
						}
					],
					"name": "ItemFullyPaid",
					"type": "event"
				},
				{
					"inputs": [
						{
							"internalType": "address",
							"name": "_addr",
							"type": "address"
						}
					],
					"name": "addBuyer",
					"outputs": [],
					"stateMutability": "nonpayable",
					"type": "function"
				},
				{
					"inputs": [
						{
							"internalType": "address",
							"name": "",
							"type": "address"
						}
					],
					"name": "buyers",
					"outputs": [
						{
							"internalType": "bool",
							"name": "",
							"type": "bool"
						}
					],
					"stateMutability": "view",
					"type": "function"
				},
				{
					"inputs": [],
					"name": "getBalance",
					"outputs": [
						{
							"internalType": "uint256",
							"name": "",
							"type": "uint256"
						}
					],
					"stateMutability": "view",
					"type": "function"
				},
				{
					"inputs": [
						{
							"internalType": "address",
							"name": "_addr",
							"type": "address"
						}
					],
					"name": "getBuyer",
					"outputs": [
						{
							"internalType": "bool",
							"name": "",
							"type": "bool"
						}
					],
					"stateMutability": "view",
					"type": "function"
				},
				{
					"inputs": [],
					"name": "owner",
					"outputs": [
						{
							"internalType": "address",
							"name": "",
							"type": "address"
						}
					],
					"stateMutability": "view",
					"type": "function"
				},
				{
					"inputs": [],
					"name": "price",
					"outputs": [
						{
							"internalType": "uint256",
							"name": "",
							"type": "uint256"
						}
					],
					"stateMutability": "view",
					"type": "function"
				},
				{
					"inputs": [],
					"name": "shopAddress",
					"outputs": [
						{
							"internalType": "address",
							"name": "",
							"type": "address"
						}
					],
					"stateMutability": "view",
					"type": "function"
				},
				{
					"inputs": [],
					"name": "withdrawAll",
					"outputs": [],
					"stateMutability": "nonpayable",
					"type": "function"
				},
				{
					"stateMutability": "payable",
					"type": "receive"
				}
			],
			"devdoc": {
				"kind": "dev",
				"methods": {},
				"version": 1
			},
			"evm": {
				"assembly": "    /* \"contracts/artifacts/cache/MopedShop.sol\":61:1539  contract MopedShop {\r... */\n  mstore(0x40, 0x80)\n    /* \"contracts/artifacts/cache/MopedShop.sol\":157:164  2 ether */\n  0x1bc16d674ec80000\n    /* \"contracts/artifacts/cache/MopedShop.sol\":134:164  uint256 public price = 2 ether */\n  0x01\n  sstore\n    /* \"contracts/artifacts/cache/MopedShop.sol\":362:505  constructor() {\r... */\n  callvalue\n  dup1\n  iszero\n  tag_1\n  jumpi\n  0x00\n  dup1\n  revert\ntag_1:\n  pop\n    /* \"contracts/artifacts/cache/MopedShop.sol\":395:405  msg.sender */\n  caller\n    /* \"contracts/artifacts/cache/MopedShop.sol\":387:392  owner */\n  0x02\n  0x00\n    /* \"contracts/artifacts/cache/MopedShop.sol\":387:405  owner = msg.sender */\n  0x0100\n  exp\n  dup2\n  sload\n  dup2\n  0xffffffffffffffffffffffffffffffffffffffff\n  mul\n  not\n  and\n  swap1\n  dup4\n  0xffffffffffffffffffffffffffffffffffffffff\n  and\n  mul\n  or\n  swap1\n  sstore\n  pop\n    /* \"contracts/artifacts/cache/MopedShop.sol\":492:496  this */\n  address\n    /* \"contracts/artifacts/cache/MopedShop.sol\":470:481  shopAddress */\n  0x03\n  0x00\n    /* \"contracts/artifacts/cache/MopedShop.sol\":470:497  shopAddress = address(this) */\n  0x0100\n  exp\n  dup2\n  sload\n  dup2\n  0xffffffffffffffffffffffffffffffffffffffff\n  mul\n  not\n  and\n  swap1\n  dup4\n  0xffffffffffffffffffffffffffffffffffffffff\n  and\n  mul\n  or\n  swap1\n  sstore\n  pop\n    /* \"contracts/artifacts/cache/MopedShop.sol\":61:1539  contract MopedShop {\r... */\n  dataSize(sub_0)\n  dup1\n  dataOffset(sub_0)\n  0x00\n  codecopy\n  0x00\n  return\nstop\n\nsub_0: assembly {\n        /* \"contracts/artifacts/cache/MopedShop.sol\":61:1539  contract MopedShop {\r... */\n      mstore(0x40, 0x80)\n      jumpi(tag_1, lt(calldatasize, 0x04))\n      shr(0xe0, calldataload(0x00))\n      dup1\n      0x8da5cb5b\n      gt\n      tag_11\n      jumpi\n      dup1\n      0x8da5cb5b\n      eq\n      tag_7\n      jumpi\n      dup1\n      0x97a993aa\n      eq\n      tag_8\n      jumpi\n      dup1\n      0xa035b1fe\n      eq\n      tag_9\n      jumpi\n      dup1\n      0xbbf89803\n      eq\n      tag_10\n      jumpi\n      jump(tag_2)\n    tag_11:\n      dup1\n      0x12065fe0\n      eq\n      tag_3\n      jumpi\n      dup1\n      0x22446fb8\n      eq\n      tag_4\n      jumpi\n      dup1\n      0x5721e419\n      eq\n      tag_5\n      jumpi\n      dup1\n      0x853828b6\n      eq\n      tag_6\n      jumpi\n      jump(tag_2)\n    tag_1:\n      jumpi(tag_2, calldatasize)\n        /* \"contracts/artifacts/cache/MopedShop.sol\":1294:1300  buyers */\n      0x00\n        /* \"contracts/artifacts/cache/MopedShop.sol\":1294:1312  buyers[msg.sender] */\n      dup1\n        /* \"contracts/artifacts/cache/MopedShop.sol\":1301:1311  msg.sender */\n      caller\n        /* \"contracts/artifacts/cache/MopedShop.sol\":1294:1312  buyers[msg.sender] */\n      0xffffffffffffffffffffffffffffffffffffffff\n      and\n      0xffffffffffffffffffffffffffffffffffffffff\n      and\n      dup2\n      mstore\n      0x20\n      add\n      swap1\n      dup2\n      mstore\n      0x20\n      add\n      0x00\n      keccak256\n      0x00\n      swap1\n      sload\n      swap1\n      0x0100\n      exp\n      swap1\n      div\n      0xff\n      and\n        /* \"contracts/artifacts/cache/MopedShop.sol\":1294:1334  buyers[msg.sender] && msg.value <= price */\n      dup1\n      iszero\n      tag_14\n      jumpi\n      pop\n        /* \"contracts/artifacts/cache/MopedShop.sol\":1329:1334  price */\n      sload(0x01)\n        /* \"contracts/artifacts/cache/MopedShop.sol\":1316:1325  msg.value */\n      callvalue\n        /* \"contracts/artifacts/cache/MopedShop.sol\":1316:1334  msg.value <= price */\n      gt\n      iszero\n        /* \"contracts/artifacts/cache/MopedShop.sol\":1294:1334  buyers[msg.sender] && msg.value <= price */\n    tag_14:\n        /* \"contracts/artifacts/cache/MopedShop.sol\":1294:1348  buyers[msg.sender] && msg.value <= price && !fullyPaid */\n      dup1\n      iszero\n      tag_15\n      jumpi\n      pop\n        /* \"contracts/artifacts/cache/MopedShop.sol\":1339:1348  fullyPaid */\n      0x03\n      0x14\n      swap1\n      sload\n      swap1\n      0x0100\n      exp\n      swap1\n      div\n      0xff\n      and\n        /* \"contracts/artifacts/cache/MopedShop.sol\":1338:1348  !fullyPaid */\n      iszero\n        /* \"contracts/artifacts/cache/MopedShop.sol\":1294:1348  buyers[msg.sender] && msg.value <= price && !fullyPaid */\n    tag_15:\n        /* \"contracts/artifacts/cache/MopedShop.sol\":1286:1361  require(buyers[msg.sender] && msg.value <= price && !fullyPaid, \"Rejected\") */\n      tag_16\n      jumpi\n      mload(0x40)\n      0x08c379a000000000000000000000000000000000000000000000000000000000\n      dup2\n      mstore\n      0x04\n      add\n      tag_17\n      swap1\n      tag_18\n      jump\t// in\n    tag_17:\n      mload(0x40)\n      dup1\n      swap2\n      sub\n      swap1\n      revert\n    tag_16:\n        /* \"contracts/artifacts/cache/MopedShop.sol\":1400:1405  price */\n      sload(0x01)\n        /* \"contracts/artifacts/cache/MopedShop.sol\":1377:1388  shopAddress */\n      0x03\n      0x00\n      swap1\n      sload\n      swap1\n      0x0100\n      exp\n      swap1\n      div\n      0xffffffffffffffffffffffffffffffffffffffff\n      and\n        /* \"contracts/artifacts/cache/MopedShop.sol\":1377:1396  shopAddress.balance */\n      0xffffffffffffffffffffffffffffffffffffffff\n      and\n      balance\n        /* \"contracts/artifacts/cache/MopedShop.sol\":1377:1405  shopAddress.balance == price */\n      eq\n        /* \"contracts/artifacts/cache/MopedShop.sol\":1374:1505  if(shopAddress.balance == price) {\r... */\n      iszero\n      tag_19\n      jumpi\n        /* \"contracts/artifacts/cache/MopedShop.sol\":1434:1438  true */\n      0x01\n        /* \"contracts/artifacts/cache/MopedShop.sol\":1422:1431  fullyPaid */\n      0x03\n      0x14\n        /* \"contracts/artifacts/cache/MopedShop.sol\":1422:1438  fullyPaid = true */\n      0x0100\n      exp\n      dup2\n      sload\n      dup2\n      0xff\n      mul\n      not\n      and\n      swap1\n      dup4\n      iszero\n      iszero\n      mul\n      or\n      swap1\n      sstore\n      pop\n        /* \"contracts/artifacts/cache/MopedShop.sol\":1460:1493  ItemFullyPaid(price, shopAddress) */\n      0xdf0dd1937b9b962acf91922fa89d354e61e20db47de2039c52915395819c36f7\n        /* \"contracts/artifacts/cache/MopedShop.sol\":1474:1479  price */\n      sload(0x01)\n        /* \"contracts/artifacts/cache/MopedShop.sol\":1481:1492  shopAddress */\n      0x03\n      0x00\n      swap1\n      sload\n      swap1\n      0x0100\n      exp\n      swap1\n      div\n      0xffffffffffffffffffffffffffffffffffffffff\n      and\n        /* \"contracts/artifacts/cache/MopedShop.sol\":1460:1493  ItemFullyPaid(price, shopAddress) */\n      mload(0x40)\n      tag_20\n      swap3\n      swap2\n      swap1\n      tag_21\n      jump\t// in\n    tag_20:\n      mload(0x40)\n      dup1\n      swap2\n      sub\n      swap1\n      log1\n        /* \"contracts/artifacts/cache/MopedShop.sol\":1374:1505  if(shopAddress.balance == price) {\r... */\n    tag_19:\n        /* \"contracts/artifacts/cache/MopedShop.sol\":61:1539  contract MopedShop {\r... */\n      stop\n    tag_2:\n      0x00\n      dup1\n      revert\n        /* \"contracts/artifacts/cache/MopedShop.sol\":837:930  function getBalance() public view returns(uint) {\r... */\n    tag_3:\n      callvalue\n      dup1\n      iszero\n      tag_22\n      jumpi\n      0x00\n      dup1\n      revert\n    tag_22:\n      pop\n      tag_23\n      tag_24\n      jump\t// in\n    tag_23:\n      mload(0x40)\n      tag_25\n      swap2\n      swap1\n      tag_26\n      jump\t// in\n    tag_25:\n      mload(0x40)\n      dup1\n      swap2\n      sub\n      swap1\n      return\n        /* \"contracts/artifacts/cache/MopedShop.sol\":235:261  address public shopAddress */\n    tag_4:\n      callvalue\n      dup1\n      iszero\n      tag_27\n      jumpi\n      0x00\n      dup1\n      revert\n    tag_27:\n      pop\n      tag_28\n      tag_29\n      jump\t// in\n    tag_28:\n      mload(0x40)\n      tag_30\n      swap2\n      swap1\n      tag_31\n      jump\t// in\n    tag_30:\n      mload(0x40)\n      dup1\n      swap2\n      sub\n      swap1\n      return\n        /* \"contracts/artifacts/cache/MopedShop.sol\":513:676  function getBuyer(address _addr) public view returns(bool) {\r... */\n    tag_5:\n      callvalue\n      dup1\n      iszero\n      tag_32\n      jumpi\n      0x00\n      dup1\n      revert\n    tag_32:\n      pop\n      tag_33\n      0x04\n      dup1\n      calldatasize\n      sub\n      dup2\n      add\n      swap1\n      tag_34\n      swap2\n      swap1\n      tag_35\n      jump\t// in\n    tag_34:\n      tag_36\n      jump\t// in\n    tag_33:\n      mload(0x40)\n      tag_37\n      swap2\n      swap1\n      tag_38\n      jump\t// in\n    tag_37:\n      mload(0x40)\n      dup1\n      swap2\n      sub\n      swap1\n      return\n        /* \"contracts/artifacts/cache/MopedShop.sol\":938:1177  function withdrawAll() public {\r... */\n    tag_6:\n      callvalue\n      dup1\n      iszero\n      tag_39\n      jumpi\n      0x00\n      dup1\n      revert\n    tag_39:\n      pop\n      tag_40\n      tag_41\n      jump\t// in\n    tag_40:\n      stop\n        /* \"contracts/artifacts/cache/MopedShop.sol\":208:228  address public owner */\n    tag_7:\n      callvalue\n      dup1\n      iszero\n      tag_42\n      jumpi\n      0x00\n      dup1\n      revert\n    tag_42:\n      pop\n      tag_43\n      tag_44\n      jump\t// in\n    tag_43:\n      mload(0x40)\n      tag_45\n      swap2\n      swap1\n      tag_31\n      jump\t// in\n    tag_45:\n      mload(0x40)\n      dup1\n      swap2\n      sub\n      swap1\n      return\n        /* \"contracts/artifacts/cache/MopedShop.sol\":87:126  mapping (address => bool) public buyers */\n    tag_8:\n      callvalue\n      dup1\n      iszero\n      tag_46\n      jumpi\n      0x00\n      dup1\n      revert\n    tag_46:\n      pop\n      tag_47\n      0x04\n      dup1\n      calldatasize\n      sub\n      dup2\n      add\n      swap1\n      tag_48\n      swap2\n      swap1\n      tag_35\n      jump\t// in\n    tag_48:\n      tag_49\n      jump\t// in\n    tag_47:\n      mload(0x40)\n      tag_50\n      swap2\n      swap1\n      tag_38\n      jump\t// in\n    tag_50:\n      mload(0x40)\n      dup1\n      swap2\n      sub\n      swap1\n      return\n        /* \"contracts/artifacts/cache/MopedShop.sol\":134:164  uint256 public price = 2 ether */\n    tag_9:\n      callvalue\n      dup1\n      iszero\n      tag_51\n      jumpi\n      0x00\n      dup1\n      revert\n    tag_51:\n      pop\n      tag_52\n      tag_53\n      jump\t// in\n    tag_52:\n      mload(0x40)\n      tag_54\n      swap2\n      swap1\n      tag_26\n      jump\t// in\n    tag_54:\n      mload(0x40)\n      dup1\n      swap2\n      sub\n      swap1\n      return\n        /* \"contracts/artifacts/cache/MopedShop.sol\":684:829  function addBuyer(address _addr) public {\r... */\n    tag_10:\n      callvalue\n      dup1\n      iszero\n      tag_55\n      jumpi\n      0x00\n      dup1\n      revert\n    tag_55:\n      pop\n      tag_56\n      0x04\n      dup1\n      calldatasize\n      sub\n      dup2\n      add\n      swap1\n      tag_57\n      swap2\n      swap1\n      tag_35\n      jump\t// in\n    tag_57:\n      tag_58\n      jump\t// in\n    tag_56:\n      stop\n        /* \"contracts/artifacts/cache/MopedShop.sol\":837:930  function getBalance() public view returns(uint) {\r... */\n    tag_24:\n        /* \"contracts/artifacts/cache/MopedShop.sol\":879:883  uint */\n      0x00\n        /* \"contracts/artifacts/cache/MopedShop.sol\":903:914  shopAddress */\n      0x03\n      0x00\n      swap1\n      sload\n      swap1\n      0x0100\n      exp\n      swap1\n      div\n      0xffffffffffffffffffffffffffffffffffffffff\n      and\n        /* \"contracts/artifacts/cache/MopedShop.sol\":903:922  shopAddress.balance */\n      0xffffffffffffffffffffffffffffffffffffffff\n      and\n      balance\n        /* \"contracts/artifacts/cache/MopedShop.sol\":896:922  return shopAddress.balance */\n      swap1\n      pop\n        /* \"contracts/artifacts/cache/MopedShop.sol\":837:930  function getBalance() public view returns(uint) {\r... */\n      swap1\n      jump\t// out\n        /* \"contracts/artifacts/cache/MopedShop.sol\":235:261  address public shopAddress */\n    tag_29:\n      0x03\n      0x00\n      swap1\n      sload\n      swap1\n      0x0100\n      exp\n      swap1\n      div\n      0xffffffffffffffffffffffffffffffffffffffff\n      and\n      dup2\n      jump\t// out\n        /* \"contracts/artifacts/cache/MopedShop.sol\":513:676  function getBuyer(address _addr) public view returns(bool) {\r... */\n    tag_36:\n        /* \"contracts/artifacts/cache/MopedShop.sol\":566:570  bool */\n      0x00\n        /* \"contracts/artifacts/cache/MopedShop.sol\":600:610  msg.sender */\n      caller\n        /* \"contracts/artifacts/cache/MopedShop.sol\":591:610  owner == msg.sender */\n      0xffffffffffffffffffffffffffffffffffffffff\n      and\n        /* \"contracts/artifacts/cache/MopedShop.sol\":591:596  owner */\n      0x02\n      0x00\n      swap1\n      sload\n      swap1\n      0x0100\n      exp\n      swap1\n      div\n      0xffffffffffffffffffffffffffffffffffffffff\n      and\n        /* \"contracts/artifacts/cache/MopedShop.sol\":591:610  owner == msg.sender */\n      0xffffffffffffffffffffffffffffffffffffffff\n      and\n      eq\n        /* \"contracts/artifacts/cache/MopedShop.sol\":583:635  require(owner == msg.sender, \"You are not an owner\") */\n      tag_61\n      jumpi\n      mload(0x40)\n      0x08c379a000000000000000000000000000000000000000000000000000000000\n      dup2\n      mstore\n      0x04\n      add\n      tag_62\n      swap1\n      tag_63\n      jump\t// in\n    tag_62:\n      mload(0x40)\n      dup1\n      swap2\n      sub\n      swap1\n      revert\n    tag_61:\n        /* \"contracts/artifacts/cache/MopedShop.sol\":655:661  buyers */\n      0x00\n        /* \"contracts/artifacts/cache/MopedShop.sol\":655:668  buyers[_addr] */\n      dup1\n        /* \"contracts/artifacts/cache/MopedShop.sol\":662:667  _addr */\n      dup4\n        /* \"contracts/artifacts/cache/MopedShop.sol\":655:668  buyers[_addr] */\n      0xffffffffffffffffffffffffffffffffffffffff\n      and\n      0xffffffffffffffffffffffffffffffffffffffff\n      and\n      dup2\n      mstore\n      0x20\n      add\n      swap1\n      dup2\n      mstore\n      0x20\n      add\n      0x00\n      keccak256\n      0x00\n      swap1\n      sload\n      swap1\n      0x0100\n      exp\n      swap1\n      div\n      0xff\n      and\n        /* \"contracts/artifacts/cache/MopedShop.sol\":648:668  return buyers[_addr] */\n      swap1\n      pop\n        /* \"contracts/artifacts/cache/MopedShop.sol\":513:676  function getBuyer(address _addr) public view returns(bool) {\r... */\n      swap2\n      swap1\n      pop\n      jump\t// out\n        /* \"contracts/artifacts/cache/MopedShop.sol\":938:1177  function withdrawAll() public {\r... */\n    tag_41:\n        /* \"contracts/artifacts/cache/MopedShop.sol\":996:1006  msg.sender */\n      caller\n        /* \"contracts/artifacts/cache/MopedShop.sol\":987:1006  owner == msg.sender */\n      0xffffffffffffffffffffffffffffffffffffffff\n      and\n        /* \"contracts/artifacts/cache/MopedShop.sol\":987:992  owner */\n      0x02\n      0x00\n      swap1\n      sload\n      swap1\n      0x0100\n      exp\n      swap1\n      div\n      0xffffffffffffffffffffffffffffffffffffffff\n      and\n        /* \"contracts/artifacts/cache/MopedShop.sol\":987:1006  owner == msg.sender */\n      0xffffffffffffffffffffffffffffffffffffffff\n      and\n      eq\n        /* \"contracts/artifacts/cache/MopedShop.sol\":987:1019  owner == msg.sender && fullyPaid */\n      dup1\n      iszero\n      tag_65\n      jumpi\n      pop\n        /* \"contracts/artifacts/cache/MopedShop.sol\":1010:1019  fullyPaid */\n      0x03\n      0x14\n      swap1\n      sload\n      swap1\n      0x0100\n      exp\n      swap1\n      div\n      0xff\n      and\n        /* \"contracts/artifacts/cache/MopedShop.sol\":987:1019  owner == msg.sender && fullyPaid */\n    tag_65:\n        /* \"contracts/artifacts/cache/MopedShop.sol\":987:1046  owner == msg.sender && fullyPaid && shopAddress.balance > 0 */\n      dup1\n      iszero\n      tag_66\n      jumpi\n      pop\n        /* \"contracts/artifacts/cache/MopedShop.sol\":1045:1046  0 */\n      0x00\n        /* \"contracts/artifacts/cache/MopedShop.sol\":1023:1034  shopAddress */\n      0x03\n      0x00\n      swap1\n      sload\n      swap1\n      0x0100\n      exp\n      swap1\n      div\n      0xffffffffffffffffffffffffffffffffffffffff\n      and\n        /* \"contracts/artifacts/cache/MopedShop.sol\":1023:1042  shopAddress.balance */\n      0xffffffffffffffffffffffffffffffffffffffff\n      and\n      balance\n        /* \"contracts/artifacts/cache/MopedShop.sol\":1023:1046  shopAddress.balance > 0 */\n      gt\n        /* \"contracts/artifacts/cache/MopedShop.sol\":987:1046  owner == msg.sender && fullyPaid && shopAddress.balance > 0 */\n    tag_66:\n        /* \"contracts/artifacts/cache/MopedShop.sol\":979:1059  require(owner == msg.sender && fullyPaid && shopAddress.balance > 0, \"Rejected\") */\n      tag_67\n      jumpi\n      mload(0x40)\n      0x08c379a000000000000000000000000000000000000000000000000000000000\n      dup2\n      mstore\n      0x04\n      add\n      tag_68\n      swap1\n      tag_18\n      jump\t// in\n    tag_68:\n      mload(0x40)\n      dup1\n      swap2\n      sub\n      swap1\n      revert\n    tag_67:\n        /* \"contracts/artifacts/cache/MopedShop.sol\":1072:1096  address payable receiver */\n      0x00\n        /* \"contracts/artifacts/cache/MopedShop.sol\":1107:1117  msg.sender */\n      caller\n        /* \"contracts/artifacts/cache/MopedShop.sol\":1072:1118  address payable receiver = payable(msg.sender) */\n      swap1\n      pop\n        /* \"contracts/artifacts/cache/MopedShop.sol\":1131:1139  receiver */\n      dup1\n        /* \"contracts/artifacts/cache/MopedShop.sol\":1131:1148  receiver.transfer */\n      0xffffffffffffffffffffffffffffffffffffffff\n      and\n        /* \"contracts/artifacts/cache/MopedShop.sol\":1131:1169  receiver.transfer(shopAddress.balance) */\n      0x08fc\n        /* \"contracts/artifacts/cache/MopedShop.sol\":1149:1160  shopAddress */\n      0x03\n      0x00\n      swap1\n      sload\n      swap1\n      0x0100\n      exp\n      swap1\n      div\n      0xffffffffffffffffffffffffffffffffffffffff\n      and\n        /* \"contracts/artifacts/cache/MopedShop.sol\":1149:1168  shopAddress.balance */\n      0xffffffffffffffffffffffffffffffffffffffff\n      and\n      balance\n        /* \"contracts/artifacts/cache/MopedShop.sol\":1131:1169  receiver.transfer(shopAddress.balance) */\n      swap1\n      dup2\n      iszero\n      mul\n      swap1\n      mload(0x40)\n      0x00\n      mload(0x40)\n      dup1\n      dup4\n      sub\n      dup2\n      dup6\n      dup9\n      dup9\n      call\n      swap4\n      pop\n      pop\n      pop\n      pop\n      iszero\n      dup1\n      iszero\n      tag_70\n      jumpi\n      returndatasize\n      0x00\n      dup1\n      returndatacopy\n      revert(0x00, returndatasize)\n    tag_70:\n      pop\n        /* \"contracts/artifacts/cache/MopedShop.sol\":968:1177  {\r... */\n      pop\n        /* \"contracts/artifacts/cache/MopedShop.sol\":938:1177  function withdrawAll() public {\r... */\n      jump\t// out\n        /* \"contracts/artifacts/cache/MopedShop.sol\":208:228  address public owner */\n    tag_44:\n      0x02\n      0x00\n      swap1\n      sload\n      swap1\n      0x0100\n      exp\n      swap1\n      div\n      0xffffffffffffffffffffffffffffffffffffffff\n      and\n      dup2\n      jump\t// out\n        /* \"contracts/artifacts/cache/MopedShop.sol\":87:126  mapping (address => bool) public buyers */\n    tag_49:\n      mstore(0x20, 0x00)\n      dup1\n      0x00\n      mstore\n      keccak256(0x00, 0x40)\n      0x00\n      swap2\n      pop\n      sload\n      swap1\n      0x0100\n      exp\n      swap1\n      div\n      0xff\n      and\n      dup2\n      jump\t// out\n        /* \"contracts/artifacts/cache/MopedShop.sol\":134:164  uint256 public price = 2 ether */\n    tag_53:\n      sload(0x01)\n      dup2\n      jump\t// out\n        /* \"contracts/artifacts/cache/MopedShop.sol\":684:829  function addBuyer(address _addr) public {\r... */\n    tag_58:\n        /* \"contracts/artifacts/cache/MopedShop.sol\":752:762  msg.sender */\n      caller\n        /* \"contracts/artifacts/cache/MopedShop.sol\":743:762  owner == msg.sender */\n      0xffffffffffffffffffffffffffffffffffffffff\n      and\n        /* \"contracts/artifacts/cache/MopedShop.sol\":743:748  owner */\n      0x02\n      0x00\n      swap1\n      sload\n      swap1\n      0x0100\n      exp\n      swap1\n      div\n      0xffffffffffffffffffffffffffffffffffffffff\n      and\n        /* \"contracts/artifacts/cache/MopedShop.sol\":743:762  owner == msg.sender */\n      0xffffffffffffffffffffffffffffffffffffffff\n      and\n      eq\n        /* \"contracts/artifacts/cache/MopedShop.sol\":735:788  require(owner == msg.sender, \"You are not an owner!\") */\n      tag_72\n      jumpi\n      mload(0x40)\n      0x08c379a000000000000000000000000000000000000000000000000000000000\n      dup2\n      mstore\n      0x04\n      add\n      tag_73\n      swap1\n      tag_74\n      jump\t// in\n    tag_73:\n      mload(0x40)\n      dup1\n      swap2\n      sub\n      swap1\n      revert\n    tag_72:\n        /* \"contracts/artifacts/cache/MopedShop.sol\":817:821  true */\n      0x01\n        /* \"contracts/artifacts/cache/MopedShop.sol\":801:807  buyers */\n      0x00\n        /* \"contracts/artifacts/cache/MopedShop.sol\":801:814  buyers[_addr] */\n      dup1\n        /* \"contracts/artifacts/cache/MopedShop.sol\":808:813  _addr */\n      dup4\n        /* \"contracts/artifacts/cache/MopedShop.sol\":801:814  buyers[_addr] */\n      0xffffffffffffffffffffffffffffffffffffffff\n      and\n      0xffffffffffffffffffffffffffffffffffffffff\n      and\n      dup2\n      mstore\n      0x20\n      add\n      swap1\n      dup2\n      mstore\n      0x20\n      add\n      0x00\n      keccak256\n      0x00\n        /* \"contracts/artifacts/cache/MopedShop.sol\":801:821  buyers[_addr] = true */\n      0x0100\n      exp\n      dup2\n      sload\n      dup2\n      0xff\n      mul\n      not\n      and\n      swap1\n      dup4\n      iszero\n      iszero\n      mul\n      or\n      swap1\n      sstore\n      pop\n        /* \"contracts/artifacts/cache/MopedShop.sol\":684:829  function addBuyer(address _addr) public {\r... */\n      pop\n      jump\t// out\n        /* \"#utility.yul\":7:146   */\n    tag_76:\n        /* \"#utility.yul\":53:58   */\n      0x00\n        /* \"#utility.yul\":91:97   */\n      dup2\n        /* \"#utility.yul\":78:98   */\n      calldataload\n        /* \"#utility.yul\":69:98   */\n      swap1\n      pop\n        /* \"#utility.yul\":107:140   */\n      tag_78\n        /* \"#utility.yul\":134:139   */\n      dup2\n        /* \"#utility.yul\":107:140   */\n      tag_79\n      jump\t// in\n    tag_78:\n        /* \"#utility.yul\":7:146   */\n      swap3\n      swap2\n      pop\n      pop\n      jump\t// out\n        /* \"#utility.yul\":152:481   */\n    tag_35:\n        /* \"#utility.yul\":211:217   */\n      0x00\n        /* \"#utility.yul\":260:262   */\n      0x20\n        /* \"#utility.yul\":248:257   */\n      dup3\n        /* \"#utility.yul\":239:246   */\n      dup5\n        /* \"#utility.yul\":235:258   */\n      sub\n        /* \"#utility.yul\":231:263   */\n      slt\n        /* \"#utility.yul\":228:347   */\n      iszero\n      tag_81\n      jumpi\n        /* \"#utility.yul\":266:345   */\n      tag_82\n      tag_83\n      jump\t// in\n    tag_82:\n        /* \"#utility.yul\":228:347   */\n    tag_81:\n        /* \"#utility.yul\":386:387   */\n      0x00\n        /* \"#utility.yul\":411:464   */\n      tag_84\n        /* \"#utility.yul\":456:463   */\n      dup5\n        /* \"#utility.yul\":447:453   */\n      dup3\n        /* \"#utility.yul\":436:445   */\n      dup6\n        /* \"#utility.yul\":432:454   */\n      add\n        /* \"#utility.yul\":411:464   */\n      tag_76\n      jump\t// in\n    tag_84:\n        /* \"#utility.yul\":401:464   */\n      swap2\n      pop\n        /* \"#utility.yul\":357:474   */\n      pop\n        /* \"#utility.yul\":152:481   */\n      swap3\n      swap2\n      pop\n      pop\n      jump\t// out\n        /* \"#utility.yul\":487:605   */\n    tag_85:\n        /* \"#utility.yul\":574:598   */\n      tag_87\n        /* \"#utility.yul\":592:597   */\n      dup2\n        /* \"#utility.yul\":574:598   */\n      tag_88\n      jump\t// in\n    tag_87:\n        /* \"#utility.yul\":569:572   */\n      dup3\n        /* \"#utility.yul\":562:599   */\n      mstore\n        /* \"#utility.yul\":487:605   */\n      pop\n      pop\n      jump\t// out\n        /* \"#utility.yul\":611:720   */\n    tag_89:\n        /* \"#utility.yul\":692:713   */\n      tag_91\n        /* \"#utility.yul\":707:712   */\n      dup2\n        /* \"#utility.yul\":692:713   */\n      tag_92\n      jump\t// in\n    tag_91:\n        /* \"#utility.yul\":687:690   */\n      dup3\n        /* \"#utility.yul\":680:714   */\n      mstore\n        /* \"#utility.yul\":611:720   */\n      pop\n      pop\n      jump\t// out\n        /* \"#utility.yul\":726:1092   */\n    tag_93:\n        /* \"#utility.yul\":868:871   */\n      0x00\n        /* \"#utility.yul\":889:956   */\n      tag_95\n        /* \"#utility.yul\":953:955   */\n      0x15\n        /* \"#utility.yul\":948:951   */\n      dup4\n        /* \"#utility.yul\":889:956   */\n      tag_96\n      jump\t// in\n    tag_95:\n        /* \"#utility.yul\":882:956   */\n      swap2\n      pop\n        /* \"#utility.yul\":965:1058   */\n      tag_97\n        /* \"#utility.yul\":1054:1057   */\n      dup3\n        /* \"#utility.yul\":965:1058   */\n      tag_98\n      jump\t// in\n    tag_97:\n        /* \"#utility.yul\":1083:1085   */\n      0x20\n        /* \"#utility.yul\":1078:1081   */\n      dup3\n        /* \"#utility.yul\":1074:1086   */\n      add\n        /* \"#utility.yul\":1067:1086   */\n      swap1\n      pop\n        /* \"#utility.yul\":726:1092   */\n      swap2\n      swap1\n      pop\n      jump\t// out\n        /* \"#utility.yul\":1098:1463   */\n    tag_99:\n        /* \"#utility.yul\":1240:1243   */\n      0x00\n        /* \"#utility.yul\":1261:1327   */\n      tag_101\n        /* \"#utility.yul\":1325:1326   */\n      0x08\n        /* \"#utility.yul\":1320:1323   */\n      dup4\n        /* \"#utility.yul\":1261:1327   */\n      tag_96\n      jump\t// in\n    tag_101:\n        /* \"#utility.yul\":1254:1327   */\n      swap2\n      pop\n        /* \"#utility.yul\":1336:1429   */\n      tag_102\n        /* \"#utility.yul\":1425:1428   */\n      dup3\n        /* \"#utility.yul\":1336:1429   */\n      tag_103\n      jump\t// in\n    tag_102:\n        /* \"#utility.yul\":1454:1456   */\n      0x20\n        /* \"#utility.yul\":1449:1452   */\n      dup3\n        /* \"#utility.yul\":1445:1457   */\n      add\n        /* \"#utility.yul\":1438:1457   */\n      swap1\n      pop\n        /* \"#utility.yul\":1098:1463   */\n      swap2\n      swap1\n      pop\n      jump\t// out\n        /* \"#utility.yul\":1469:1835   */\n    tag_104:\n        /* \"#utility.yul\":1611:1614   */\n      0x00\n        /* \"#utility.yul\":1632:1699   */\n      tag_106\n        /* \"#utility.yul\":1696:1698   */\n      0x14\n        /* \"#utility.yul\":1691:1694   */\n      dup4\n        /* \"#utility.yul\":1632:1699   */\n      tag_96\n      jump\t// in\n    tag_106:\n        /* \"#utility.yul\":1625:1699   */\n      swap2\n      pop\n        /* \"#utility.yul\":1708:1801   */\n      tag_107\n        /* \"#utility.yul\":1797:1800   */\n      dup3\n        /* \"#utility.yul\":1708:1801   */\n      tag_108\n      jump\t// in\n    tag_107:\n        /* \"#utility.yul\":1826:1828   */\n      0x20\n        /* \"#utility.yul\":1821:1824   */\n      dup3\n        /* \"#utility.yul\":1817:1829   */\n      add\n        /* \"#utility.yul\":1810:1829   */\n      swap1\n      pop\n        /* \"#utility.yul\":1469:1835   */\n      swap2\n      swap1\n      pop\n      jump\t// out\n        /* \"#utility.yul\":1841:1959   */\n    tag_109:\n        /* \"#utility.yul\":1928:1952   */\n      tag_111\n        /* \"#utility.yul\":1946:1951   */\n      dup2\n        /* \"#utility.yul\":1928:1952   */\n      tag_112\n      jump\t// in\n    tag_111:\n        /* \"#utility.yul\":1923:1926   */\n      dup3\n        /* \"#utility.yul\":1916:1953   */\n      mstore\n        /* \"#utility.yul\":1841:1959   */\n      pop\n      pop\n      jump\t// out\n        /* \"#utility.yul\":1965:2187   */\n    tag_31:\n        /* \"#utility.yul\":2058:2062   */\n      0x00\n        /* \"#utility.yul\":2096:2098   */\n      0x20\n        /* \"#utility.yul\":2085:2094   */\n      dup3\n        /* \"#utility.yul\":2081:2099   */\n      add\n        /* \"#utility.yul\":2073:2099   */\n      swap1\n      pop\n        /* \"#utility.yul\":2109:2180   */\n      tag_114\n        /* \"#utility.yul\":2177:2178   */\n      0x00\n        /* \"#utility.yul\":2166:2175   */\n      dup4\n        /* \"#utility.yul\":2162:2179   */\n      add\n        /* \"#utility.yul\":2153:2159   */\n      dup5\n        /* \"#utility.yul\":2109:2180   */\n      tag_85\n      jump\t// in\n    tag_114:\n        /* \"#utility.yul\":1965:2187   */\n      swap3\n      swap2\n      pop\n      pop\n      jump\t// out\n        /* \"#utility.yul\":2193:2403   */\n    tag_38:\n        /* \"#utility.yul\":2280:2284   */\n      0x00\n        /* \"#utility.yul\":2318:2320   */\n      0x20\n        /* \"#utility.yul\":2307:2316   */\n      dup3\n        /* \"#utility.yul\":2303:2321   */\n      add\n        /* \"#utility.yul\":2295:2321   */\n      swap1\n      pop\n        /* \"#utility.yul\":2331:2396   */\n      tag_116\n        /* \"#utility.yul\":2393:2394   */\n      0x00\n        /* \"#utility.yul\":2382:2391   */\n      dup4\n        /* \"#utility.yul\":2378:2395   */\n      add\n        /* \"#utility.yul\":2369:2375   */\n      dup5\n        /* \"#utility.yul\":2331:2396   */\n      tag_89\n      jump\t// in\n    tag_116:\n        /* \"#utility.yul\":2193:2403   */\n      swap3\n      swap2\n      pop\n      pop\n      jump\t// out\n        /* \"#utility.yul\":2409:2828   */\n    tag_74:\n        /* \"#utility.yul\":2575:2579   */\n      0x00\n        /* \"#utility.yul\":2613:2615   */\n      0x20\n        /* \"#utility.yul\":2602:2611   */\n      dup3\n        /* \"#utility.yul\":2598:2616   */\n      add\n        /* \"#utility.yul\":2590:2616   */\n      swap1\n      pop\n        /* \"#utility.yul\":2662:2671   */\n      dup2\n        /* \"#utility.yul\":2656:2660   */\n      dup2\n        /* \"#utility.yul\":2652:2672   */\n      sub\n        /* \"#utility.yul\":2648:2649   */\n      0x00\n        /* \"#utility.yul\":2637:2646   */\n      dup4\n        /* \"#utility.yul\":2633:2650   */\n      add\n        /* \"#utility.yul\":2626:2673   */\n      mstore\n        /* \"#utility.yul\":2690:2821   */\n      tag_118\n        /* \"#utility.yul\":2816:2820   */\n      dup2\n        /* \"#utility.yul\":2690:2821   */\n      tag_93\n      jump\t// in\n    tag_118:\n        /* \"#utility.yul\":2682:2821   */\n      swap1\n      pop\n        /* \"#utility.yul\":2409:2828   */\n      swap2\n      swap1\n      pop\n      jump\t// out\n        /* \"#utility.yul\":2834:3253   */\n    tag_18:\n        /* \"#utility.yul\":3000:3004   */\n      0x00\n        /* \"#utility.yul\":3038:3040   */\n      0x20\n        /* \"#utility.yul\":3027:3036   */\n      dup3\n        /* \"#utility.yul\":3023:3041   */\n      add\n        /* \"#utility.yul\":3015:3041   */\n      swap1\n      pop\n        /* \"#utility.yul\":3087:3096   */\n      dup2\n        /* \"#utility.yul\":3081:3085   */\n      dup2\n        /* \"#utility.yul\":3077:3097   */\n      sub\n        /* \"#utility.yul\":3073:3074   */\n      0x00\n        /* \"#utility.yul\":3062:3071   */\n      dup4\n        /* \"#utility.yul\":3058:3075   */\n      add\n        /* \"#utility.yul\":3051:3098   */\n      mstore\n        /* \"#utility.yul\":3115:3246   */\n      tag_120\n        /* \"#utility.yul\":3241:3245   */\n      dup2\n        /* \"#utility.yul\":3115:3246   */\n      tag_99\n      jump\t// in\n    tag_120:\n        /* \"#utility.yul\":3107:3246   */\n      swap1\n      pop\n        /* \"#utility.yul\":2834:3253   */\n      swap2\n      swap1\n      pop\n      jump\t// out\n        /* \"#utility.yul\":3259:3678   */\n    tag_63:\n        /* \"#utility.yul\":3425:3429   */\n      0x00\n        /* \"#utility.yul\":3463:3465   */\n      0x20\n        /* \"#utility.yul\":3452:3461   */\n      dup3\n        /* \"#utility.yul\":3448:3466   */\n      add\n        /* \"#utility.yul\":3440:3466   */\n      swap1\n      pop\n        /* \"#utility.yul\":3512:3521   */\n      dup2\n        /* \"#utility.yul\":3506:3510   */\n      dup2\n        /* \"#utility.yul\":3502:3522   */\n      sub\n        /* \"#utility.yul\":3498:3499   */\n      0x00\n        /* \"#utility.yul\":3487:3496   */\n      dup4\n        /* \"#utility.yul\":3483:3500   */\n      add\n        /* \"#utility.yul\":3476:3523   */\n      mstore\n        /* \"#utility.yul\":3540:3671   */\n      tag_122\n        /* \"#utility.yul\":3666:3670   */\n      dup2\n        /* \"#utility.yul\":3540:3671   */\n      tag_104\n      jump\t// in\n    tag_122:\n        /* \"#utility.yul\":3532:3671   */\n      swap1\n      pop\n        /* \"#utility.yul\":3259:3678   */\n      swap2\n      swap1\n      pop\n      jump\t// out\n        /* \"#utility.yul\":3684:3906   */\n    tag_26:\n        /* \"#utility.yul\":3777:3781   */\n      0x00\n        /* \"#utility.yul\":3815:3817   */\n      0x20\n        /* \"#utility.yul\":3804:3813   */\n      dup3\n        /* \"#utility.yul\":3800:3818   */\n      add\n        /* \"#utility.yul\":3792:3818   */\n      swap1\n      pop\n        /* \"#utility.yul\":3828:3899   */\n      tag_124\n        /* \"#utility.yul\":3896:3897   */\n      0x00\n        /* \"#utility.yul\":3885:3894   */\n      dup4\n        /* \"#utility.yul\":3881:3898   */\n      add\n        /* \"#utility.yul\":3872:3878   */\n      dup5\n        /* \"#utility.yul\":3828:3899   */\n      tag_109\n      jump\t// in\n    tag_124:\n        /* \"#utility.yul\":3684:3906   */\n      swap3\n      swap2\n      pop\n      pop\n      jump\t// out\n        /* \"#utility.yul\":3912:4244   */\n    tag_21:\n        /* \"#utility.yul\":4033:4037   */\n      0x00\n        /* \"#utility.yul\":4071:4073   */\n      0x40\n        /* \"#utility.yul\":4060:4069   */\n      dup3\n        /* \"#utility.yul\":4056:4074   */\n      add\n        /* \"#utility.yul\":4048:4074   */\n      swap1\n      pop\n        /* \"#utility.yul\":4084:4155   */\n      tag_126\n        /* \"#utility.yul\":4152:4153   */\n      0x00\n        /* \"#utility.yul\":4141:4150   */\n      dup4\n        /* \"#utility.yul\":4137:4154   */\n      add\n        /* \"#utility.yul\":4128:4134   */\n      dup6\n        /* \"#utility.yul\":4084:4155   */\n      tag_109\n      jump\t// in\n    tag_126:\n        /* \"#utility.yul\":4165:4237   */\n      tag_127\n        /* \"#utility.yul\":4233:4235   */\n      0x20\n        /* \"#utility.yul\":4222:4231   */\n      dup4\n        /* \"#utility.yul\":4218:4236   */\n      add\n        /* \"#utility.yul\":4209:4215   */\n      dup5\n        /* \"#utility.yul\":4165:4237   */\n      tag_85\n      jump\t// in\n    tag_127:\n        /* \"#utility.yul\":3912:4244   */\n      swap4\n      swap3\n      pop\n      pop\n      pop\n      jump\t// out\n        /* \"#utility.yul\":4331:4500   */\n    tag_96:\n        /* \"#utility.yul\":4415:4426   */\n      0x00\n        /* \"#utility.yul\":4449:4455   */\n      dup3\n        /* \"#utility.yul\":4444:4447   */\n      dup3\n        /* \"#utility.yul\":4437:4456   */\n      mstore\n        /* \"#utility.yul\":4489:4493   */\n      0x20\n        /* \"#utility.yul\":4484:4487   */\n      dup3\n        /* \"#utility.yul\":4480:4494   */\n      add\n        /* \"#utility.yul\":4465:4494   */\n      swap1\n      pop\n        /* \"#utility.yul\":4331:4500   */\n      swap3\n      swap2\n      pop\n      pop\n      jump\t// out\n        /* \"#utility.yul\":4506:4602   */\n    tag_88:\n        /* \"#utility.yul\":4543:4550   */\n      0x00\n        /* \"#utility.yul\":4572:4596   */\n      tag_132\n        /* \"#utility.yul\":4590:4595   */\n      dup3\n        /* \"#utility.yul\":4572:4596   */\n      tag_133\n      jump\t// in\n    tag_132:\n        /* \"#utility.yul\":4561:4596   */\n      swap1\n      pop\n        /* \"#utility.yul\":4506:4602   */\n      swap2\n      swap1\n      pop\n      jump\t// out\n        /* \"#utility.yul\":4608:4698   */\n    tag_92:\n        /* \"#utility.yul\":4642:4649   */\n      0x00\n        /* \"#utility.yul\":4685:4690   */\n      dup2\n        /* \"#utility.yul\":4678:4691   */\n      iszero\n        /* \"#utility.yul\":4671:4692   */\n      iszero\n        /* \"#utility.yul\":4660:4692   */\n      swap1\n      pop\n        /* \"#utility.yul\":4608:4698   */\n      swap2\n      swap1\n      pop\n      jump\t// out\n        /* \"#utility.yul\":4704:4830   */\n    tag_133:\n        /* \"#utility.yul\":4741:4748   */\n      0x00\n        /* \"#utility.yul\":4781:4823   */\n      0xffffffffffffffffffffffffffffffffffffffff\n        /* \"#utility.yul\":4774:4779   */\n      dup3\n        /* \"#utility.yul\":4770:4824   */\n      and\n        /* \"#utility.yul\":4759:4824   */\n      swap1\n      pop\n        /* \"#utility.yul\":4704:4830   */\n      swap2\n      swap1\n      pop\n      jump\t// out\n        /* \"#utility.yul\":4836:4913   */\n    tag_112:\n        /* \"#utility.yul\":4873:4880   */\n      0x00\n        /* \"#utility.yul\":4902:4907   */\n      dup2\n        /* \"#utility.yul\":4891:4907   */\n      swap1\n      pop\n        /* \"#utility.yul\":4836:4913   */\n      swap2\n      swap1\n      pop\n      jump\t// out\n        /* \"#utility.yul\":5042:5159   */\n    tag_83:\n        /* \"#utility.yul\":5151:5152   */\n      0x00\n        /* \"#utility.yul\":5148:5149   */\n      dup1\n        /* \"#utility.yul\":5141:5153   */\n      revert\n        /* \"#utility.yul\":5165:5336   */\n    tag_98:\n        /* \"#utility.yul\":5305:5328   */\n      0x596f7520617265206e6f7420616e206f776e6572210000000000000000000000\n        /* \"#utility.yul\":5301:5302   */\n      0x00\n        /* \"#utility.yul\":5293:5299   */\n      dup3\n        /* \"#utility.yul\":5289:5303   */\n      add\n        /* \"#utility.yul\":5282:5329   */\n      mstore\n        /* \"#utility.yul\":5165:5336   */\n      pop\n      jump\t// out\n        /* \"#utility.yul\":5342:5500   */\n    tag_103:\n        /* \"#utility.yul\":5482:5492   */\n      0x52656a6563746564000000000000000000000000000000000000000000000000\n        /* \"#utility.yul\":5478:5479   */\n      0x00\n        /* \"#utility.yul\":5470:5476   */\n      dup3\n        /* \"#utility.yul\":5466:5480   */\n      add\n        /* \"#utility.yul\":5459:5493   */\n      mstore\n        /* \"#utility.yul\":5342:5500   */\n      pop\n      jump\t// out\n        /* \"#utility.yul\":5506:5676   */\n    tag_108:\n        /* \"#utility.yul\":5646:5668   */\n      0x596f7520617265206e6f7420616e206f776e6572000000000000000000000000\n        /* \"#utility.yul\":5642:5643   */\n      0x00\n        /* \"#utility.yul\":5634:5640   */\n      dup3\n        /* \"#utility.yul\":5630:5644   */\n      add\n        /* \"#utility.yul\":5623:5669   */\n      mstore\n        /* \"#utility.yul\":5506:5676   */\n      pop\n      jump\t// out\n        /* \"#utility.yul\":5682:5804   */\n    tag_79:\n        /* \"#utility.yul\":5755:5779   */\n      tag_144\n        /* \"#utility.yul\":5773:5778   */\n      dup2\n        /* \"#utility.yul\":5755:5779   */\n      tag_88\n      jump\t// in\n    tag_144:\n        /* \"#utility.yul\":5748:5753   */\n      dup2\n        /* \"#utility.yul\":5745:5780   */\n      eq\n        /* \"#utility.yul\":5735:5798   */\n      tag_145\n      jumpi\n        /* \"#utility.yul\":5794:5795   */\n      0x00\n        /* \"#utility.yul\":5791:5792   */\n      dup1\n        /* \"#utility.yul\":5784:5796   */\n      revert\n        /* \"#utility.yul\":5735:5798   */\n    tag_145:\n        /* \"#utility.yul\":5682:5804   */\n      pop\n      jump\t// out\n\n    auxdata: 0xa26469706673582212200999e4b3d65dee136c2cc6cd901f4c12ba6ce3f8dbe3c5c53a41cc5642acf3fc64736f6c63430008070033\n}\n",
				"bytecode": {
					"linkReferences": {},
					"object": "6080604052671bc16d674ec8000060015534801561001c57600080fd5b5033600260006101000a81548173ffffffffffffffffffffffffffffffffffffffff021916908373ffffffffffffffffffffffffffffffffffffffff16021790555030600360006101000a81548173ffffffffffffffffffffffffffffffffffffffff021916908373ffffffffffffffffffffffffffffffffffffffff160217905550610a2e806100ae6000396000f3fe60806040526004361061007f5760003560e01c80638da5cb5b1161004e5780638da5cb5b146102a357806397a993aa146102ce578063a035b1fe1461030b578063bbf8980314610336576101f4565b806312065fe0146101f957806322446fb8146102245780635721e4191461024f578063853828b61461028c576101f4565b366101f4576000803373ffffffffffffffffffffffffffffffffffffffff1673ffffffffffffffffffffffffffffffffffffffff16815260200190815260200160002060009054906101000a900460ff1680156100de57506001543411155b80156100f75750600360149054906101000a900460ff16155b610136576040517f08c379a000000000000000000000000000000000000000000000000000000000815260040161012d90610884565b60405180910390fd5b600154600360009054906101000a900473ffffffffffffffffffffffffffffffffffffffff1673ffffffffffffffffffffffffffffffffffffffff163114156101f2576001600360146101000a81548160ff0219169083151502179055507fdf0dd1937b9b962acf91922fa89d354e61e20db47de2039c52915395819c36f7600154600360009054906101000a900473ffffffffffffffffffffffffffffffffffffffff166040516101e99291906108df565b60405180910390a15b005b600080fd5b34801561020557600080fd5b5061020e61035f565b60405161021b91906108c4565b60405180910390f35b34801561023057600080fd5b506102396103a0565b604051610246919061082e565b60405180910390f35b34801561025b57600080fd5b506102766004803603810190610271919061076b565b6103c6565b6040516102839190610849565b60405180910390f35b34801561029857600080fd5b506102a16104ab565b005b3480156102af57600080fd5b506102b8610620565b6040516102c5919061082e565b60405180910390f35b3480156102da57600080fd5b506102f560048036038101906102f0919061076b565b610646565b6040516103029190610849565b60405180910390f35b34801561031757600080fd5b50610320610666565b60405161032d91906108c4565b60405180910390f35b34801561034257600080fd5b5061035d6004803603810190610358919061076b565b61066c565b005b6000600360009054906101000a900473ffffffffffffffffffffffffffffffffffffffff1673ffffffffffffffffffffffffffffffffffffffff1631905090565b600360009054906101000a900473ffffffffffffffffffffffffffffffffffffffff1681565b60003373ffffffffffffffffffffffffffffffffffffffff16600260009054906101000a900473ffffffffffffffffffffffffffffffffffffffff1673ffffffffffffffffffffffffffffffffffffffff1614610458576040517f08c379a000000000000000000000000000000000000000000000000000000000815260040161044f906108a4565b60405180910390fd5b6000808373ffffffffffffffffffffffffffffffffffffffff1673ffffffffffffffffffffffffffffffffffffffff16815260200190815260200160002060009054906101000a900460ff169050919050565b3373ffffffffffffffffffffffffffffffffffffffff16600260009054906101000a900473ffffffffffffffffffffffffffffffffffffffff1673ffffffffffffffffffffffffffffffffffffffff161480156105145750600360149054906101000a900460ff165b801561055957506000600360009054906101000a900473ffffffffffffffffffffffffffffffffffffffff1673ffffffffffffffffffffffffffffffffffffffff1631115b610598576040517f08c379a000000000000000000000000000000000000000000000000000000000815260040161058f90610884565b60405180910390fd5b60003390508073ffffffffffffffffffffffffffffffffffffffff166108fc600360009054906101000a900473ffffffffffffffffffffffffffffffffffffffff1673ffffffffffffffffffffffffffffffffffffffff16319081150290604051600060405180830381858888f1935050505015801561061c573d6000803e3d6000fd5b5050565b600260009054906101000a900473ffffffffffffffffffffffffffffffffffffffff1681565b60006020528060005260406000206000915054906101000a900460ff1681565b60015481565b3373ffffffffffffffffffffffffffffffffffffffff16600260009054906101000a900473ffffffffffffffffffffffffffffffffffffffff1673ffffffffffffffffffffffffffffffffffffffff16146106fc576040517f08c379a00000000000000000000000000000000000000000000000000000000081526004016106f390610864565b60405180910390fd5b60016000808373ffffffffffffffffffffffffffffffffffffffff1673ffffffffffffffffffffffffffffffffffffffff16815260200190815260200160002060006101000a81548160ff02191690831515021790555050565b600081359050610765816109e1565b92915050565b60006020828403121561078157610780610961565b5b600061078f84828501610756565b91505092915050565b6107a181610919565b82525050565b6107b08161092b565b82525050565b60006107c3601583610908565b91506107ce82610966565b602082019050919050565b60006107e6600883610908565b91506107f18261098f565b602082019050919050565b6000610809601483610908565b9150610814826109b8565b602082019050919050565b61082881610957565b82525050565b60006020820190506108436000830184610798565b92915050565b600060208201905061085e60008301846107a7565b92915050565b6000602082019050818103600083015261087d816107b6565b9050919050565b6000602082019050818103600083015261089d816107d9565b9050919050565b600060208201905081810360008301526108bd816107fc565b9050919050565b60006020820190506108d9600083018461081f565b92915050565b60006040820190506108f4600083018561081f565b6109016020830184610798565b9392505050565b600082825260208201905092915050565b600061092482610937565b9050919050565b60008115159050919050565b600073ffffffffffffffffffffffffffffffffffffffff82169050919050565b6000819050919050565b600080fd5b7f596f7520617265206e6f7420616e206f776e6572210000000000000000000000600082015250565b7f52656a6563746564000000000000000000000000000000000000000000000000600082015250565b7f596f7520617265206e6f7420616e206f776e6572000000000000000000000000600082015250565b6109ea81610919565b81146109f557600080fd5b5056fea26469706673582212200999e4b3d65dee136c2cc6cd901f4c12ba6ce3f8dbe3c5c53a41cc5642acf3fc64736f6c63430008070033",
					"opcodes": "PUSH1 0x80 PUSH1 0x40 MSTORE PUSH8 0x1BC16D674EC80000 PUSH1 0x1 SSTORE CALLVALUE DUP1 ISZERO PUSH2 0x1C JUMPI PUSH1 0x0 DUP1 REVERT JUMPDEST POP CALLER PUSH1 0x2 PUSH1 0x0 PUSH2 0x100 EXP DUP2 SLOAD DUP2 PUSH20 0xFFFFFFFFFFFFFFFFFFFFFFFFFFFFFFFFFFFFFFFF MUL NOT AND SWAP1 DUP4 PUSH20 0xFFFFFFFFFFFFFFFFFFFFFFFFFFFFFFFFFFFFFFFF AND MUL OR SWAP1 SSTORE POP ADDRESS PUSH1 0x3 PUSH1 0x0 PUSH2 0x100 EXP DUP2 SLOAD DUP2 PUSH20 0xFFFFFFFFFFFFFFFFFFFFFFFFFFFFFFFFFFFFFFFF MUL NOT AND SWAP1 DUP4 PUSH20 0xFFFFFFFFFFFFFFFFFFFFFFFFFFFFFFFFFFFFFFFF AND MUL OR SWAP1 SSTORE POP PUSH2 0xA2E DUP1 PUSH2 0xAE PUSH1 0x0 CODECOPY PUSH1 0x0 RETURN INVALID PUSH1 0x80 PUSH1 0x40 MSTORE PUSH1 0x4 CALLDATASIZE LT PUSH2 0x7F JUMPI PUSH1 0x0 CALLDATALOAD PUSH1 0xE0 SHR DUP1 PUSH4 0x8DA5CB5B GT PUSH2 0x4E JUMPI DUP1 PUSH4 0x8DA5CB5B EQ PUSH2 0x2A3 JUMPI DUP1 PUSH4 0x97A993AA EQ PUSH2 0x2CE JUMPI DUP1 PUSH4 0xA035B1FE EQ PUSH2 0x30B JUMPI DUP1 PUSH4 0xBBF89803 EQ PUSH2 0x336 JUMPI PUSH2 0x1F4 JUMP JUMPDEST DUP1 PUSH4 0x12065FE0 EQ PUSH2 0x1F9 JUMPI DUP1 PUSH4 0x22446FB8 EQ PUSH2 0x224 JUMPI DUP1 PUSH4 0x5721E419 EQ PUSH2 0x24F JUMPI DUP1 PUSH4 0x853828B6 EQ PUSH2 0x28C JUMPI PUSH2 0x1F4 JUMP JUMPDEST CALLDATASIZE PUSH2 0x1F4 JUMPI PUSH1 0x0 DUP1 CALLER PUSH20 0xFFFFFFFFFFFFFFFFFFFFFFFFFFFFFFFFFFFFFFFF AND PUSH20 0xFFFFFFFFFFFFFFFFFFFFFFFFFFFFFFFFFFFFFFFF AND DUP2 MSTORE PUSH1 0x20 ADD SWAP1 DUP2 MSTORE PUSH1 0x20 ADD PUSH1 0x0 KECCAK256 PUSH1 0x0 SWAP1 SLOAD SWAP1 PUSH2 0x100 EXP SWAP1 DIV PUSH1 0xFF AND DUP1 ISZERO PUSH2 0xDE JUMPI POP PUSH1 0x1 SLOAD CALLVALUE GT ISZERO JUMPDEST DUP1 ISZERO PUSH2 0xF7 JUMPI POP PUSH1 0x3 PUSH1 0x14 SWAP1 SLOAD SWAP1 PUSH2 0x100 EXP SWAP1 DIV PUSH1 0xFF AND ISZERO JUMPDEST PUSH2 0x136 JUMPI PUSH1 0x40 MLOAD PUSH32 0x8C379A000000000000000000000000000000000000000000000000000000000 DUP2 MSTORE PUSH1 0x4 ADD PUSH2 0x12D SWAP1 PUSH2 0x884 JUMP JUMPDEST PUSH1 0x40 MLOAD DUP1 SWAP2 SUB SWAP1 REVERT JUMPDEST PUSH1 0x1 SLOAD PUSH1 0x3 PUSH1 0x0 SWAP1 SLOAD SWAP1 PUSH2 0x100 EXP SWAP1 DIV PUSH20 0xFFFFFFFFFFFFFFFFFFFFFFFFFFFFFFFFFFFFFFFF AND PUSH20 0xFFFFFFFFFFFFFFFFFFFFFFFFFFFFFFFFFFFFFFFF AND BALANCE EQ ISZERO PUSH2 0x1F2 JUMPI PUSH1 0x1 PUSH1 0x3 PUSH1 0x14 PUSH2 0x100 EXP DUP2 SLOAD DUP2 PUSH1 0xFF MUL NOT AND SWAP1 DUP4 ISZERO ISZERO MUL OR SWAP1 SSTORE POP PUSH32 0xDF0DD1937B9B962ACF91922FA89D354E61E20DB47DE2039C52915395819C36F7 PUSH1 0x1 SLOAD PUSH1 0x3 PUSH1 0x0 SWAP1 SLOAD SWAP1 PUSH2 0x100 EXP SWAP1 DIV PUSH20 0xFFFFFFFFFFFFFFFFFFFFFFFFFFFFFFFFFFFFFFFF AND PUSH1 0x40 MLOAD PUSH2 0x1E9 SWAP3 SWAP2 SWAP1 PUSH2 0x8DF JUMP JUMPDEST PUSH1 0x40 MLOAD DUP1 SWAP2 SUB SWAP1 LOG1 JUMPDEST STOP JUMPDEST PUSH1 0x0 DUP1 REVERT JUMPDEST CALLVALUE DUP1 ISZERO PUSH2 0x205 JUMPI PUSH1 0x0 DUP1 REVERT JUMPDEST POP PUSH2 0x20E PUSH2 0x35F JUMP JUMPDEST PUSH1 0x40 MLOAD PUSH2 0x21B SWAP2 SWAP1 PUSH2 0x8C4 JUMP JUMPDEST PUSH1 0x40 MLOAD DUP1 SWAP2 SUB SWAP1 RETURN JUMPDEST CALLVALUE DUP1 ISZERO PUSH2 0x230 JUMPI PUSH1 0x0 DUP1 REVERT JUMPDEST POP PUSH2 0x239 PUSH2 0x3A0 JUMP JUMPDEST PUSH1 0x40 MLOAD PUSH2 0x246 SWAP2 SWAP1 PUSH2 0x82E JUMP JUMPDEST PUSH1 0x40 MLOAD DUP1 SWAP2 SUB SWAP1 RETURN JUMPDEST CALLVALUE DUP1 ISZERO PUSH2 0x25B JUMPI PUSH1 0x0 DUP1 REVERT JUMPDEST POP PUSH2 0x276 PUSH1 0x4 DUP1 CALLDATASIZE SUB DUP2 ADD SWAP1 PUSH2 0x271 SWAP2 SWAP1 PUSH2 0x76B JUMP JUMPDEST PUSH2 0x3C6 JUMP JUMPDEST PUSH1 0x40 MLOAD PUSH2 0x283 SWAP2 SWAP1 PUSH2 0x849 JUMP JUMPDEST PUSH1 0x40 MLOAD DUP1 SWAP2 SUB SWAP1 RETURN JUMPDEST CALLVALUE DUP1 ISZERO PUSH2 0x298 JUMPI PUSH1 0x0 DUP1 REVERT JUMPDEST POP PUSH2 0x2A1 PUSH2 0x4AB JUMP JUMPDEST STOP JUMPDEST CALLVALUE DUP1 ISZERO PUSH2 0x2AF JUMPI PUSH1 0x0 DUP1 REVERT JUMPDEST POP PUSH2 0x2B8 PUSH2 0x620 JUMP JUMPDEST PUSH1 0x40 MLOAD PUSH2 0x2C5 SWAP2 SWAP1 PUSH2 0x82E JUMP JUMPDEST PUSH1 0x40 MLOAD DUP1 SWAP2 SUB SWAP1 RETURN JUMPDEST CALLVALUE DUP1 ISZERO PUSH2 0x2DA JUMPI PUSH1 0x0 DUP1 REVERT JUMPDEST POP PUSH2 0x2F5 PUSH1 0x4 DUP1 CALLDATASIZE SUB DUP2 ADD SWAP1 PUSH2 0x2F0 SWAP2 SWAP1 PUSH2 0x76B JUMP JUMPDEST PUSH2 0x646 JUMP JUMPDEST PUSH1 0x40 MLOAD PUSH2 0x302 SWAP2 SWAP1 PUSH2 0x849 JUMP JUMPDEST PUSH1 0x40 MLOAD DUP1 SWAP2 SUB SWAP1 RETURN JUMPDEST CALLVALUE DUP1 ISZERO PUSH2 0x317 JUMPI PUSH1 0x0 DUP1 REVERT JUMPDEST POP PUSH2 0x320 PUSH2 0x666 JUMP JUMPDEST PUSH1 0x40 MLOAD PUSH2 0x32D SWAP2 SWAP1 PUSH2 0x8C4 JUMP JUMPDEST PUSH1 0x40 MLOAD DUP1 SWAP2 SUB SWAP1 RETURN JUMPDEST CALLVALUE DUP1 ISZERO PUSH2 0x342 JUMPI PUSH1 0x0 DUP1 REVERT JUMPDEST POP PUSH2 0x35D PUSH1 0x4 DUP1 CALLDATASIZE SUB DUP2 ADD SWAP1 PUSH2 0x358 SWAP2 SWAP1 PUSH2 0x76B JUMP JUMPDEST PUSH2 0x66C JUMP JUMPDEST STOP JUMPDEST PUSH1 0x0 PUSH1 0x3 PUSH1 0x0 SWAP1 SLOAD SWAP1 PUSH2 0x100 EXP SWAP1 DIV PUSH20 0xFFFFFFFFFFFFFFFFFFFFFFFFFFFFFFFFFFFFFFFF AND PUSH20 0xFFFFFFFFFFFFFFFFFFFFFFFFFFFFFFFFFFFFFFFF AND BALANCE SWAP1 POP SWAP1 JUMP JUMPDEST PUSH1 0x3 PUSH1 0x0 SWAP1 SLOAD SWAP1 PUSH2 0x100 EXP SWAP1 DIV PUSH20 0xFFFFFFFFFFFFFFFFFFFFFFFFFFFFFFFFFFFFFFFF AND DUP2 JUMP JUMPDEST PUSH1 0x0 CALLER PUSH20 0xFFFFFFFFFFFFFFFFFFFFFFFFFFFFFFFFFFFFFFFF AND PUSH1 0x2 PUSH1 0x0 SWAP1 SLOAD SWAP1 PUSH2 0x100 EXP SWAP1 DIV PUSH20 0xFFFFFFFFFFFFFFFFFFFFFFFFFFFFFFFFFFFFFFFF AND PUSH20 0xFFFFFFFFFFFFFFFFFFFFFFFFFFFFFFFFFFFFFFFF AND EQ PUSH2 0x458 JUMPI PUSH1 0x40 MLOAD PUSH32 0x8C379A000000000000000000000000000000000000000000000000000000000 DUP2 MSTORE PUSH1 0x4 ADD PUSH2 0x44F SWAP1 PUSH2 0x8A4 JUMP JUMPDEST PUSH1 0x40 MLOAD DUP1 SWAP2 SUB SWAP1 REVERT JUMPDEST PUSH1 0x0 DUP1 DUP4 PUSH20 0xFFFFFFFFFFFFFFFFFFFFFFFFFFFFFFFFFFFFFFFF AND PUSH20 0xFFFFFFFFFFFFFFFFFFFFFFFFFFFFFFFFFFFFFFFF AND DUP2 MSTORE PUSH1 0x20 ADD SWAP1 DUP2 MSTORE PUSH1 0x20 ADD PUSH1 0x0 KECCAK256 PUSH1 0x0 SWAP1 SLOAD SWAP1 PUSH2 0x100 EXP SWAP1 DIV PUSH1 0xFF AND SWAP1 POP SWAP2 SWAP1 POP JUMP JUMPDEST CALLER PUSH20 0xFFFFFFFFFFFFFFFFFFFFFFFFFFFFFFFFFFFFFFFF AND PUSH1 0x2 PUSH1 0x0 SWAP1 SLOAD SWAP1 PUSH2 0x100 EXP SWAP1 DIV PUSH20 0xFFFFFFFFFFFFFFFFFFFFFFFFFFFFFFFFFFFFFFFF AND PUSH20 0xFFFFFFFFFFFFFFFFFFFFFFFFFFFFFFFFFFFFFFFF AND EQ DUP1 ISZERO PUSH2 0x514 JUMPI POP PUSH1 0x3 PUSH1 0x14 SWAP1 SLOAD SWAP1 PUSH2 0x100 EXP SWAP1 DIV PUSH1 0xFF AND JUMPDEST DUP1 ISZERO PUSH2 0x559 JUMPI POP PUSH1 0x0 PUSH1 0x3 PUSH1 0x0 SWAP1 SLOAD SWAP1 PUSH2 0x100 EXP SWAP1 DIV PUSH20 0xFFFFFFFFFFFFFFFFFFFFFFFFFFFFFFFFFFFFFFFF AND PUSH20 0xFFFFFFFFFFFFFFFFFFFFFFFFFFFFFFFFFFFFFFFF AND BALANCE GT JUMPDEST PUSH2 0x598 JUMPI PUSH1 0x40 MLOAD PUSH32 0x8C379A000000000000000000000000000000000000000000000000000000000 DUP2 MSTORE PUSH1 0x4 ADD PUSH2 0x58F SWAP1 PUSH2 0x884 JUMP JUMPDEST PUSH1 0x40 MLOAD DUP1 SWAP2 SUB SWAP1 REVERT JUMPDEST PUSH1 0x0 CALLER SWAP1 POP DUP1 PUSH20 0xFFFFFFFFFFFFFFFFFFFFFFFFFFFFFFFFFFFFFFFF AND PUSH2 0x8FC PUSH1 0x3 PUSH1 0x0 SWAP1 SLOAD SWAP1 PUSH2 0x100 EXP SWAP1 DIV PUSH20 0xFFFFFFFFFFFFFFFFFFFFFFFFFFFFFFFFFFFFFFFF AND PUSH20 0xFFFFFFFFFFFFFFFFFFFFFFFFFFFFFFFFFFFFFFFF AND BALANCE SWAP1 DUP2 ISZERO MUL SWAP1 PUSH1 0x40 MLOAD PUSH1 0x0 PUSH1 0x40 MLOAD DUP1 DUP4 SUB DUP2 DUP6 DUP9 DUP9 CALL SWAP4 POP POP POP POP ISZERO DUP1 ISZERO PUSH2 0x61C JUMPI RETURNDATASIZE PUSH1 0x0 DUP1 RETURNDATACOPY RETURNDATASIZE PUSH1 0x0 REVERT JUMPDEST POP POP JUMP JUMPDEST PUSH1 0x2 PUSH1 0x0 SWAP1 SLOAD SWAP1 PUSH2 0x100 EXP SWAP1 DIV PUSH20 0xFFFFFFFFFFFFFFFFFFFFFFFFFFFFFFFFFFFFFFFF AND DUP2 JUMP JUMPDEST PUSH1 0x0 PUSH1 0x20 MSTORE DUP1 PUSH1 0x0 MSTORE PUSH1 0x40 PUSH1 0x0 KECCAK256 PUSH1 0x0 SWAP2 POP SLOAD SWAP1 PUSH2 0x100 EXP SWAP1 DIV PUSH1 0xFF AND DUP2 JUMP JUMPDEST PUSH1 0x1 SLOAD DUP2 JUMP JUMPDEST CALLER PUSH20 0xFFFFFFFFFFFFFFFFFFFFFFFFFFFFFFFFFFFFFFFF AND PUSH1 0x2 PUSH1 0x0 SWAP1 SLOAD SWAP1 PUSH2 0x100 EXP SWAP1 DIV PUSH20 0xFFFFFFFFFFFFFFFFFFFFFFFFFFFFFFFFFFFFFFFF AND PUSH20 0xFFFFFFFFFFFFFFFFFFFFFFFFFFFFFFFFFFFFFFFF AND EQ PUSH2 0x6FC JUMPI PUSH1 0x40 MLOAD PUSH32 0x8C379A000000000000000000000000000000000000000000000000000000000 DUP2 MSTORE PUSH1 0x4 ADD PUSH2 0x6F3 SWAP1 PUSH2 0x864 JUMP JUMPDEST PUSH1 0x40 MLOAD DUP1 SWAP2 SUB SWAP1 REVERT JUMPDEST PUSH1 0x1 PUSH1 0x0 DUP1 DUP4 PUSH20 0xFFFFFFFFFFFFFFFFFFFFFFFFFFFFFFFFFFFFFFFF AND PUSH20 0xFFFFFFFFFFFFFFFFFFFFFFFFFFFFFFFFFFFFFFFF AND DUP2 MSTORE PUSH1 0x20 ADD SWAP1 DUP2 MSTORE PUSH1 0x20 ADD PUSH1 0x0 KECCAK256 PUSH1 0x0 PUSH2 0x100 EXP DUP2 SLOAD DUP2 PUSH1 0xFF MUL NOT AND SWAP1 DUP4 ISZERO ISZERO MUL OR SWAP1 SSTORE POP POP JUMP JUMPDEST PUSH1 0x0 DUP2 CALLDATALOAD SWAP1 POP PUSH2 0x765 DUP2 PUSH2 0x9E1 JUMP JUMPDEST SWAP3 SWAP2 POP POP JUMP JUMPDEST PUSH1 0x0 PUSH1 0x20 DUP3 DUP5 SUB SLT ISZERO PUSH2 0x781 JUMPI PUSH2 0x780 PUSH2 0x961 JUMP JUMPDEST JUMPDEST PUSH1 0x0 PUSH2 0x78F DUP5 DUP3 DUP6 ADD PUSH2 0x756 JUMP JUMPDEST SWAP2 POP POP SWAP3 SWAP2 POP POP JUMP JUMPDEST PUSH2 0x7A1 DUP2 PUSH2 0x919 JUMP JUMPDEST DUP3 MSTORE POP POP JUMP JUMPDEST PUSH2 0x7B0 DUP2 PUSH2 0x92B JUMP JUMPDEST DUP3 MSTORE POP POP JUMP JUMPDEST PUSH1 0x0 PUSH2 0x7C3 PUSH1 0x15 DUP4 PUSH2 0x908 JUMP JUMPDEST SWAP2 POP PUSH2 0x7CE DUP3 PUSH2 0x966 JUMP JUMPDEST PUSH1 0x20 DUP3 ADD SWAP1 POP SWAP2 SWAP1 POP JUMP JUMPDEST PUSH1 0x0 PUSH2 0x7E6 PUSH1 0x8 DUP4 PUSH2 0x908 JUMP JUMPDEST SWAP2 POP PUSH2 0x7F1 DUP3 PUSH2 0x98F JUMP JUMPDEST PUSH1 0x20 DUP3 ADD SWAP1 POP SWAP2 SWAP1 POP JUMP JUMPDEST PUSH1 0x0 PUSH2 0x809 PUSH1 0x14 DUP4 PUSH2 0x908 JUMP JUMPDEST SWAP2 POP PUSH2 0x814 DUP3 PUSH2 0x9B8 JUMP JUMPDEST PUSH1 0x20 DUP3 ADD SWAP1 POP SWAP2 SWAP1 POP JUMP JUMPDEST PUSH2 0x828 DUP2 PUSH2 0x957 JUMP JUMPDEST DUP3 MSTORE POP POP JUMP JUMPDEST PUSH1 0x0 PUSH1 0x20 DUP3 ADD SWAP1 POP PUSH2 0x843 PUSH1 0x0 DUP4 ADD DUP5 PUSH2 0x798 JUMP JUMPDEST SWAP3 SWAP2 POP POP JUMP JUMPDEST PUSH1 0x0 PUSH1 0x20 DUP3 ADD SWAP1 POP PUSH2 0x85E PUSH1 0x0 DUP4 ADD DUP5 PUSH2 0x7A7 JUMP JUMPDEST SWAP3 SWAP2 POP POP JUMP JUMPDEST PUSH1 0x0 PUSH1 0x20 DUP3 ADD SWAP1 POP DUP2 DUP2 SUB PUSH1 0x0 DUP4 ADD MSTORE PUSH2 0x87D DUP2 PUSH2 0x7B6 JUMP JUMPDEST SWAP1 POP SWAP2 SWAP1 POP JUMP JUMPDEST PUSH1 0x0 PUSH1 0x20 DUP3 ADD SWAP1 POP DUP2 DUP2 SUB PUSH1 0x0 DUP4 ADD MSTORE PUSH2 0x89D DUP2 PUSH2 0x7D9 JUMP JUMPDEST SWAP1 POP SWAP2 SWAP1 POP JUMP JUMPDEST PUSH1 0x0 PUSH1 0x20 DUP3 ADD SWAP1 POP DUP2 DUP2 SUB PUSH1 0x0 DUP4 ADD MSTORE PUSH2 0x8BD DUP2 PUSH2 0x7FC JUMP JUMPDEST SWAP1 POP SWAP2 SWAP1 POP JUMP JUMPDEST PUSH1 0x0 PUSH1 0x20 DUP3 ADD SWAP1 POP PUSH2 0x8D9 PUSH1 0x0 DUP4 ADD DUP5 PUSH2 0x81F JUMP JUMPDEST SWAP3 SWAP2 POP POP JUMP JUMPDEST PUSH1 0x0 PUSH1 0x40 DUP3 ADD SWAP1 POP PUSH2 0x8F4 PUSH1 0x0 DUP4 ADD DUP6 PUSH2 0x81F JUMP JUMPDEST PUSH2 0x901 PUSH1 0x20 DUP4 ADD DUP5 PUSH2 0x798 JUMP JUMPDEST SWAP4 SWAP3 POP POP POP JUMP JUMPDEST PUSH1 0x0 DUP3 DUP3 MSTORE PUSH1 0x20 DUP3 ADD SWAP1 POP SWAP3 SWAP2 POP POP JUMP JUMPDEST PUSH1 0x0 PUSH2 0x924 DUP3 PUSH2 0x937 JUMP JUMPDEST SWAP1 POP SWAP2 SWAP1 POP JUMP JUMPDEST PUSH1 0x0 DUP2 ISZERO ISZERO SWAP1 POP SWAP2 SWAP1 POP JUMP JUMPDEST PUSH1 0x0 PUSH20 0xFFFFFFFFFFFFFFFFFFFFFFFFFFFFFFFFFFFFFFFF DUP3 AND SWAP1 POP SWAP2 SWAP1 POP JUMP JUMPDEST PUSH1 0x0 DUP2 SWAP1 POP SWAP2 SWAP1 POP JUMP JUMPDEST PUSH1 0x0 DUP1 REVERT JUMPDEST PUSH32 0x596F7520617265206E6F7420616E206F776E6572210000000000000000000000 PUSH1 0x0 DUP3 ADD MSTORE POP JUMP JUMPDEST PUSH32 0x52656A6563746564000000000000000000000000000000000000000000000000 PUSH1 0x0 DUP3 ADD MSTORE POP JUMP JUMPDEST PUSH32 0x596F7520617265206E6F7420616E206F776E6572000000000000000000000000 PUSH1 0x0 DUP3 ADD MSTORE POP JUMP JUMPDEST PUSH2 0x9EA DUP2 PUSH2 0x919 JUMP JUMPDEST DUP2 EQ PUSH2 0x9F5 JUMPI PUSH1 0x0 DUP1 REVERT JUMPDEST POP JUMP INVALID LOG2 PUSH5 0x6970667358 0x22 SLT KECCAK256 MULMOD SWAP10 0xE4 0xB3 0xD6 0x5D 0xEE SGT PUSH13 0x2CC6CD901F4C12BA6CE3F8DBE3 0xC5 0xC5 GASPRICE COINBASE 0xCC JUMP TIMESTAMP 0xAC RETURN 0xFC PUSH5 0x736F6C6343 STOP ADDMOD SMOD STOP CALLER "
				},
				"gasEstimates": {
					"creation": {
						"codeDepositCost": "521200",
						"executionCost": "71194",
						"totalCost": "592394"
					},
					"external": {
						"addBuyer(address)": "27048",
						"buyers(address)": "2867",
						"getBalance()": "5080",
						"getBuyer(address)": "5098",
						"owner()": "2514",
						"price()": "2473",
						"shopAddress()": "2537",
						"withdrawAll()": "infinite"
					}
				},
				"methodIdentifiers": {
					"addBuyer(address)": "bbf89803",
					"buyers(address)": "97a993aa",
					"getBalance()": "12065fe0",
					"getBuyer(address)": "5721e419",
					"owner()": "8da5cb5b",
					"price()": "a035b1fe",
					"shopAddress()": "22446fb8",
					"withdrawAll()": "853828b6"
				}
			},
			"storageLayout": {
				"storage": [
					{
						"astId": 5,
						"contract": "contracts/artifacts/cache/MopedShop.sol:MopedShop",
						"label": "buyers",
						"offset": 0,
						"slot": "0",
						"type": "t_mapping(t_address,t_bool)"
					},
					{
						"astId": 8,
						"contract": "contracts/artifacts/cache/MopedShop.sol:MopedShop",
						"label": "price",
						"offset": 0,
						"slot": "1",
						"type": "t_uint256"
					},
					{
						"astId": 10,
						"contract": "contracts/artifacts/cache/MopedShop.sol:MopedShop",
						"label": "owner",
						"offset": 0,
						"slot": "2",
						"type": "t_address"
					},
					{
						"astId": 12,
						"contract": "contracts/artifacts/cache/MopedShop.sol:MopedShop",
						"label": "shopAddress",
						"offset": 0,
						"slot": "3",
						"type": "t_address"
					},
					{
						"astId": 14,
						"contract": "contracts/artifacts/cache/MopedShop.sol:MopedShop",
						"label": "fullyPaid",
						"offset": 20,
						"slot": "3",
						"type": "t_bool"
					}
				],
				"types": {
					"t_address": {
						"encoding": "inplace",
						"label": "address",
						"numberOfBytes": "20"
					},
					"t_bool": {
						"encoding": "inplace",
						"label": "bool",
						"numberOfBytes": "1"
					},
					"t_mapping(t_address,t_bool)": {
						"encoding": "mapping",
						"key": "t_address",
						"label": "mapping(address => bool)",
						"numberOfBytes": "32",
						"value": "t_bool"
					},
					"t_uint256": {
						"encoding": "inplace",
						"label": "uint256",
						"numberOfBytes": "32"
					}
				}
			},
			"userdoc": {
				"kind": "user",
				"methods": {},
				"version": 1
			}
		}
	}
}